{
	"SendMoneyExample.sol": {
		"SendMoneyExample": {
			"abi": [
				{
					"inputs": [
						{
							"internalType": "address",
							"name": "_address",
							"type": "address"
						}
					],
					"name": "PayThisAddress",
					"outputs": [],
					"stateMutability": "nonpayable",
					"type": "function"
				},
				{
					"inputs": [],
					"name": "balanceReceived",
					"outputs": [
						{
							"internalType": "uint256",
							"name": "",
							"type": "uint256"
						}
					],
					"stateMutability": "view",
					"type": "function"
				},
				{
					"inputs": [],
					"name": "getBalance",
					"outputs": [
						{
							"internalType": "uint256",
							"name": "",
							"type": "uint256"
						}
					],
					"stateMutability": "view",
					"type": "function"
				},
				{
					"inputs": [],
					"name": "receiveMoney",
					"outputs": [],
					"stateMutability": "payable",
					"type": "function"
				}
			],
			"devdoc": {
				"kind": "dev",
				"methods": {},
				"version": 1
			},
			"evm": {
				"assembly": "    /* \"SendMoneyExample.sol\":62:592  contract SendMoneyExample {... */\n  mstore(0x40, 0x80)\n  callvalue\n  dup1\n  iszero\n  tag_1\n  jumpi\n  0x00\n  dup1\n  revert\ntag_1:\n  pop\n  dataSize(sub_0)\n  dup1\n  dataOffset(sub_0)\n  0x00\n  codecopy\n  0x00\n  return\nstop\n\nsub_0: assembly {\n        /* \"SendMoneyExample.sol\":62:592  contract SendMoneyExample {... */\n      mstore(0x40, 0x80)\n      jumpi(tag_1, lt(calldatasize, 0x04))\n      shr(0xe0, calldataload(0x00))\n      dup1\n      0x12065fe0\n      eq\n      tag_2\n      jumpi\n      dup1\n      0x52a90c42\n      eq\n      tag_3\n      jumpi\n      dup1\n      0x6d26ec18\n      eq\n      tag_4\n      jumpi\n      dup1\n      0x8529812d\n      eq\n      tag_5\n      jumpi\n    tag_1:\n      0x00\n      dup1\n      revert\n        /* \"SendMoneyExample.sol\":219:312  function getBalance() public view returns(uint) {... */\n    tag_2:\n      callvalue\n      dup1\n      iszero\n      tag_6\n      jumpi\n      0x00\n      dup1\n      revert\n    tag_6:\n      pop\n      tag_7\n      tag_8\n      jump\t// in\n    tag_7:\n      mload(0x40)\n      tag_9\n      swap2\n      swap1\n      tag_10\n      jump\t// in\n    tag_9:\n      mload(0x40)\n      dup1\n      swap2\n      sub\n      swap1\n      return\n        /* \"SendMoneyExample.sol\":95:122  uint public balanceReceived */\n    tag_3:\n      callvalue\n      dup1\n      iszero\n      tag_11\n      jumpi\n      0x00\n      dup1\n      revert\n    tag_11:\n      pop\n      tag_12\n      tag_13\n      jump\t// in\n    tag_12:\n      mload(0x40)\n      tag_14\n      swap2\n      swap1\n      tag_10\n      jump\t// in\n    tag_14:\n      mload(0x40)\n      dup1\n      swap2\n      sub\n      swap1\n      return\n        /* \"SendMoneyExample.sol\":129:213  function receiveMoney() public payable {... */\n    tag_4:\n      tag_15\n      tag_16\n      jump\t// in\n    tag_15:\n      stop\n        /* \"SendMoneyExample.sol\":451:590  function PayThisAddress(address _address) public {... */\n    tag_5:\n      callvalue\n      dup1\n      iszero\n      tag_17\n      jumpi\n      0x00\n      dup1\n      revert\n    tag_17:\n      pop\n      tag_18\n      0x04\n      dup1\n      calldatasize\n      sub\n      dup2\n      add\n      swap1\n      tag_19\n      swap2\n      swap1\n      tag_20\n      jump\t// in\n    tag_19:\n      tag_21\n      jump\t// in\n    tag_18:\n      stop\n        /* \"SendMoneyExample.sol\":219:312  function getBalance() public view returns(uint) {... */\n    tag_8:\n        /* \"SendMoneyExample.sol\":261:265  uint */\n      0x00\n        /* \"SendMoneyExample.sol\":284:305  address(this).balance */\n      selfbalance\n        /* \"SendMoneyExample.sol\":277:305  return address(this).balance */\n      swap1\n      pop\n        /* \"SendMoneyExample.sol\":219:312  function getBalance() public view returns(uint) {... */\n      swap1\n      jump\t// out\n        /* \"SendMoneyExample.sol\":95:122  uint public balanceReceived */\n    tag_13:\n      sload(0x00)\n      dup2\n      jump\t// out\n        /* \"SendMoneyExample.sol\":129:213  function receiveMoney() public payable {... */\n    tag_16:\n        /* \"SendMoneyExample.sol\":197:206  msg.value */\n      callvalue\n        /* \"SendMoneyExample.sol\":178:193  balanceReceived */\n      0x00\n      dup1\n        /* \"SendMoneyExample.sol\":178:206  balanceReceived += msg.value */\n      dup3\n      dup3\n      sload\n      tag_24\n      swap2\n      swap1\n      tag_25\n      jump\t// in\n    tag_24:\n      swap3\n      pop\n      pop\n      dup2\n      swap1\n      sstore\n      pop\n        /* \"SendMoneyExample.sol\":129:213  function receiveMoney() public payable {... */\n      jump\t// out\n        /* \"SendMoneyExample.sol\":451:590  function PayThisAddress(address _address) public {... */\n    tag_21:\n        /* \"SendMoneyExample.sol\":510:528  address payable to */\n      0x00\n        /* \"SendMoneyExample.sol\":539:547  _address */\n      dup2\n        /* \"SendMoneyExample.sol\":510:548  address payable to = payable(_address) */\n      swap1\n      pop\n        /* \"SendMoneyExample.sol\":558:560  to */\n      dup1\n        /* \"SendMoneyExample.sol\":558:569  to.transfer */\n      0xffffffffffffffffffffffffffffffffffffffff\n      and\n        /* \"SendMoneyExample.sol\":558:583  to.transfer(getBalance()) */\n      0x08fc\n        /* \"SendMoneyExample.sol\":570:582  getBalance() */\n      tag_27\n        /* \"SendMoneyExample.sol\":570:580  getBalance */\n      tag_8\n        /* \"SendMoneyExample.sol\":570:582  getBalance() */\n      jump\t// in\n    tag_27:\n        /* \"SendMoneyExample.sol\":558:583  to.transfer(getBalance()) */\n      swap1\n      dup2\n      iszero\n      mul\n      swap1\n      mload(0x40)\n      0x00\n      mload(0x40)\n      dup1\n      dup4\n      sub\n      dup2\n      dup6\n      dup9\n      dup9\n      call\n      swap4\n      pop\n      pop\n      pop\n      pop\n      iszero\n      dup1\n      iszero\n      tag_29\n      jumpi\n      returndatasize\n      0x00\n      dup1\n      returndatacopy\n      revert(0x00, returndatasize)\n    tag_29:\n      pop\n        /* \"SendMoneyExample.sol\":500:590  {... */\n      pop\n        /* \"SendMoneyExample.sol\":451:590  function PayThisAddress(address _address) public {... */\n      pop\n      jump\t// out\n        /* \"#utility.yul\":7:146   */\n    tag_31:\n        /* \"#utility.yul\":53:58   */\n      0x00\n        /* \"#utility.yul\":91:97   */\n      dup2\n        /* \"#utility.yul\":78:98   */\n      calldataload\n        /* \"#utility.yul\":69:98   */\n      swap1\n      pop\n        /* \"#utility.yul\":107:140   */\n      tag_33\n        /* \"#utility.yul\":134:139   */\n      dup2\n        /* \"#utility.yul\":107:140   */\n      tag_34\n      jump\t// in\n    tag_33:\n        /* \"#utility.yul\":7:146   */\n      swap3\n      swap2\n      pop\n      pop\n      jump\t// out\n        /* \"#utility.yul\":152:481   */\n    tag_20:\n        /* \"#utility.yul\":211:217   */\n      0x00\n        /* \"#utility.yul\":260:262   */\n      0x20\n        /* \"#utility.yul\":248:257   */\n      dup3\n        /* \"#utility.yul\":239:246   */\n      dup5\n        /* \"#utility.yul\":235:258   */\n      sub\n        /* \"#utility.yul\":231:263   */\n      slt\n        /* \"#utility.yul\":228:347   */\n      iszero\n      tag_36\n      jumpi\n        /* \"#utility.yul\":266:345   */\n      tag_37\n      tag_38\n      jump\t// in\n    tag_37:\n        /* \"#utility.yul\":228:347   */\n    tag_36:\n        /* \"#utility.yul\":386:387   */\n      0x00\n        /* \"#utility.yul\":411:464   */\n      tag_39\n        /* \"#utility.yul\":456:463   */\n      dup5\n        /* \"#utility.yul\":447:453   */\n      dup3\n        /* \"#utility.yul\":436:445   */\n      dup6\n        /* \"#utility.yul\":432:454   */\n      add\n        /* \"#utility.yul\":411:464   */\n      tag_31\n      jump\t// in\n    tag_39:\n        /* \"#utility.yul\":401:464   */\n      swap2\n      pop\n        /* \"#utility.yul\":357:474   */\n      pop\n        /* \"#utility.yul\":152:481   */\n      swap3\n      swap2\n      pop\n      pop\n      jump\t// out\n        /* \"#utility.yul\":487:605   */\n    tag_40:\n        /* \"#utility.yul\":574:598   */\n      tag_42\n        /* \"#utility.yul\":592:597   */\n      dup2\n        /* \"#utility.yul\":574:598   */\n      tag_43\n      jump\t// in\n    tag_42:\n        /* \"#utility.yul\":569:572   */\n      dup3\n        /* \"#utility.yul\":562:599   */\n      mstore\n        /* \"#utility.yul\":487:605   */\n      pop\n      pop\n      jump\t// out\n        /* \"#utility.yul\":611:833   */\n    tag_10:\n        /* \"#utility.yul\":704:708   */\n      0x00\n        /* \"#utility.yul\":742:744   */\n      0x20\n        /* \"#utility.yul\":731:740   */\n      dup3\n        /* \"#utility.yul\":727:745   */\n      add\n        /* \"#utility.yul\":719:745   */\n      swap1\n      pop\n        /* \"#utility.yul\":755:826   */\n      tag_45\n        /* \"#utility.yul\":823:824   */\n      0x00\n        /* \"#utility.yul\":812:821   */\n      dup4\n        /* \"#utility.yul\":808:825   */\n      add\n        /* \"#utility.yul\":799:805   */\n      dup5\n        /* \"#utility.yul\":755:826   */\n      tag_40\n      jump\t// in\n    tag_45:\n        /* \"#utility.yul\":611:833   */\n      swap3\n      swap2\n      pop\n      pop\n      jump\t// out\n        /* \"#utility.yul\":920:1225   */\n    tag_25:\n        /* \"#utility.yul\":960:963   */\n      0x00\n        /* \"#utility.yul\":979:999   */\n      tag_49\n        /* \"#utility.yul\":997:998   */\n      dup3\n        /* \"#utility.yul\":979:999   */\n      tag_43\n      jump\t// in\n    tag_49:\n        /* \"#utility.yul\":974:999   */\n      swap2\n      pop\n        /* \"#utility.yul\":1013:1033   */\n      tag_50\n        /* \"#utility.yul\":1031:1032   */\n      dup4\n        /* \"#utility.yul\":1013:1033   */\n      tag_43\n      jump\t// in\n    tag_50:\n        /* \"#utility.yul\":1008:1033   */\n      swap3\n      pop\n        /* \"#utility.yul\":1167:1168   */\n      dup3\n        /* \"#utility.yul\":1099:1165   */\n      0xffffffffffffffffffffffffffffffffffffffffffffffffffffffffffffffff\n        /* \"#utility.yul\":1095:1169   */\n      sub\n        /* \"#utility.yul\":1092:1093   */\n      dup3\n        /* \"#utility.yul\":1089:1170   */\n      gt\n        /* \"#utility.yul\":1086:1193   */\n      iszero\n      tag_51\n      jumpi\n        /* \"#utility.yul\":1173:1191   */\n      tag_52\n      tag_53\n      jump\t// in\n    tag_52:\n        /* \"#utility.yul\":1086:1193   */\n    tag_51:\n        /* \"#utility.yul\":1217:1218   */\n      dup3\n        /* \"#utility.yul\":1214:1215   */\n      dup3\n        /* \"#utility.yul\":1210:1219   */\n      add\n        /* \"#utility.yul\":1203:1219   */\n      swap1\n      pop\n        /* \"#utility.yul\":920:1225   */\n      swap3\n      swap2\n      pop\n      pop\n      jump\t// out\n        /* \"#utility.yul\":1231:1327   */\n    tag_54:\n        /* \"#utility.yul\":1268:1275   */\n      0x00\n        /* \"#utility.yul\":1297:1321   */\n      tag_56\n        /* \"#utility.yul\":1315:1320   */\n      dup3\n        /* \"#utility.yul\":1297:1321   */\n      tag_57\n      jump\t// in\n    tag_56:\n        /* \"#utility.yul\":1286:1321   */\n      swap1\n      pop\n        /* \"#utility.yul\":1231:1327   */\n      swap2\n      swap1\n      pop\n      jump\t// out\n        /* \"#utility.yul\":1333:1459   */\n    tag_57:\n        /* \"#utility.yul\":1370:1377   */\n      0x00\n        /* \"#utility.yul\":1410:1452   */\n      0xffffffffffffffffffffffffffffffffffffffff\n        /* \"#utility.yul\":1403:1408   */\n      dup3\n        /* \"#utility.yul\":1399:1453   */\n      and\n        /* \"#utility.yul\":1388:1453   */\n      swap1\n      pop\n        /* \"#utility.yul\":1333:1459   */\n      swap2\n      swap1\n      pop\n      jump\t// out\n        /* \"#utility.yul\":1465:1542   */\n    tag_43:\n        /* \"#utility.yul\":1502:1509   */\n      0x00\n        /* \"#utility.yul\":1531:1536   */\n      dup2\n        /* \"#utility.yul\":1520:1536   */\n      swap1\n      pop\n        /* \"#utility.yul\":1465:1542   */\n      swap2\n      swap1\n      pop\n      jump\t// out\n        /* \"#utility.yul\":1548:1728   */\n    tag_53:\n        /* \"#utility.yul\":1596:1673   */\n      0x4e487b7100000000000000000000000000000000000000000000000000000000\n        /* \"#utility.yul\":1593:1594   */\n      0x00\n        /* \"#utility.yul\":1586:1674   */\n      mstore\n        /* \"#utility.yul\":1693:1697   */\n      0x11\n        /* \"#utility.yul\":1690:1691   */\n      0x04\n        /* \"#utility.yul\":1683:1698   */\n      mstore\n        /* \"#utility.yul\":1717:1721   */\n      0x24\n        /* \"#utility.yul\":1714:1715   */\n      0x00\n        /* \"#utility.yul\":1707:1722   */\n      revert\n        /* \"#utility.yul\":1857:1974   */\n    tag_38:\n        /* \"#utility.yul\":1966:1967   */\n      0x00\n        /* \"#utility.yul\":1963:1964   */\n      dup1\n        /* \"#utility.yul\":1956:1968   */\n      revert\n        /* \"#utility.yul\":1980:2102   */\n    tag_34:\n        /* \"#utility.yul\":2053:2077   */\n      tag_65\n        /* \"#utility.yul\":2071:2076   */\n      dup2\n        /* \"#utility.yul\":2053:2077   */\n      tag_54\n      jump\t// in\n    tag_65:\n        /* \"#utility.yul\":2046:2051   */\n      dup2\n        /* \"#utility.yul\":2043:2078   */\n      eq\n        /* \"#utility.yul\":2033:2096   */\n      tag_66\n      jumpi\n        /* \"#utility.yul\":2092:2093   */\n      0x00\n        /* \"#utility.yul\":2089:2090   */\n      dup1\n        /* \"#utility.yul\":2082:2094   */\n      revert\n        /* \"#utility.yul\":2033:2096   */\n    tag_66:\n        /* \"#utility.yul\":1980:2102   */\n      pop\n      jump\t// out\n\n    auxdata: 0xa2646970667358221220ed1b41e7e4af32feaaa980b00034f9db2b76d5b6ec0845ad3ec20056e7bb721664736f6c63430008070033\n}\n",
				"bytecode": {
					"linkReferences": {},
					"object": "608060405234801561001057600080fd5b506102cb806100206000396000f3fe60806040526004361061003f5760003560e01c806312065fe01461004457806352a90c421461006f5780636d26ec181461009a5780638529812d146100a4575b600080fd5b34801561005057600080fd5b506100596100cd565b604051610066919061019d565b60405180910390f35b34801561007b57600080fd5b506100846100d5565b604051610091919061019d565b60405180910390f35b6100a26100db565b005b3480156100b057600080fd5b506100cb60048036038101906100c69190610161565b6100f5565b005b600047905090565b60005481565b346000808282546100ec91906101b8565b92505081905550565b60008190508073ffffffffffffffffffffffffffffffffffffffff166108fc61011c6100cd565b9081150290604051600060405180830381858888f19350505050158015610147573d6000803e3d6000fd5b505050565b60008135905061015b8161027e565b92915050565b60006020828403121561017757610176610279565b5b60006101858482850161014c565b91505092915050565b61019781610240565b82525050565b60006020820190506101b2600083018461018e565b92915050565b60006101c382610240565b91506101ce83610240565b9250827fffffffffffffffffffffffffffffffffffffffffffffffffffffffffffffffff038211156102035761020261024a565b5b828201905092915050565b600061021982610220565b9050919050565b600073ffffffffffffffffffffffffffffffffffffffff82169050919050565b6000819050919050565b7f4e487b7100000000000000000000000000000000000000000000000000000000600052601160045260246000fd5b600080fd5b6102878161020e565b811461029257600080fd5b5056fea2646970667358221220ed1b41e7e4af32feaaa980b00034f9db2b76d5b6ec0845ad3ec20056e7bb721664736f6c63430008070033",
					"opcodes": "PUSH1 0x80 PUSH1 0x40 MSTORE CALLVALUE DUP1 ISZERO PUSH2 0x10 JUMPI PUSH1 0x0 DUP1 REVERT JUMPDEST POP PUSH2 0x2CB DUP1 PUSH2 0x20 PUSH1 0x0 CODECOPY PUSH1 0x0 RETURN INVALID PUSH1 0x80 PUSH1 0x40 MSTORE PUSH1 0x4 CALLDATASIZE LT PUSH2 0x3F JUMPI PUSH1 0x0 CALLDATALOAD PUSH1 0xE0 SHR DUP1 PUSH4 0x12065FE0 EQ PUSH2 0x44 JUMPI DUP1 PUSH4 0x52A90C42 EQ PUSH2 0x6F JUMPI DUP1 PUSH4 0x6D26EC18 EQ PUSH2 0x9A JUMPI DUP1 PUSH4 0x8529812D EQ PUSH2 0xA4 JUMPI JUMPDEST PUSH1 0x0 DUP1 REVERT JUMPDEST CALLVALUE DUP1 ISZERO PUSH2 0x50 JUMPI PUSH1 0x0 DUP1 REVERT JUMPDEST POP PUSH2 0x59 PUSH2 0xCD JUMP JUMPDEST PUSH1 0x40 MLOAD PUSH2 0x66 SWAP2 SWAP1 PUSH2 0x19D JUMP JUMPDEST PUSH1 0x40 MLOAD DUP1 SWAP2 SUB SWAP1 RETURN JUMPDEST CALLVALUE DUP1 ISZERO PUSH2 0x7B JUMPI PUSH1 0x0 DUP1 REVERT JUMPDEST POP PUSH2 0x84 PUSH2 0xD5 JUMP JUMPDEST PUSH1 0x40 MLOAD PUSH2 0x91 SWAP2 SWAP1 PUSH2 0x19D JUMP JUMPDEST PUSH1 0x40 MLOAD DUP1 SWAP2 SUB SWAP1 RETURN JUMPDEST PUSH2 0xA2 PUSH2 0xDB JUMP JUMPDEST STOP JUMPDEST CALLVALUE DUP1 ISZERO PUSH2 0xB0 JUMPI PUSH1 0x0 DUP1 REVERT JUMPDEST POP PUSH2 0xCB PUSH1 0x4 DUP1 CALLDATASIZE SUB DUP2 ADD SWAP1 PUSH2 0xC6 SWAP2 SWAP1 PUSH2 0x161 JUMP JUMPDEST PUSH2 0xF5 JUMP JUMPDEST STOP JUMPDEST PUSH1 0x0 SELFBALANCE SWAP1 POP SWAP1 JUMP JUMPDEST PUSH1 0x0 SLOAD DUP2 JUMP JUMPDEST CALLVALUE PUSH1 0x0 DUP1 DUP3 DUP3 SLOAD PUSH2 0xEC SWAP2 SWAP1 PUSH2 0x1B8 JUMP JUMPDEST SWAP3 POP POP DUP2 SWAP1 SSTORE POP JUMP JUMPDEST PUSH1 0x0 DUP2 SWAP1 POP DUP1 PUSH20 0xFFFFFFFFFFFFFFFFFFFFFFFFFFFFFFFFFFFFFFFF AND PUSH2 0x8FC PUSH2 0x11C PUSH2 0xCD JUMP JUMPDEST SWAP1 DUP2 ISZERO MUL SWAP1 PUSH1 0x40 MLOAD PUSH1 0x0 PUSH1 0x40 MLOAD DUP1 DUP4 SUB DUP2 DUP6 DUP9 DUP9 CALL SWAP4 POP POP POP POP ISZERO DUP1 ISZERO PUSH2 0x147 JUMPI RETURNDATASIZE PUSH1 0x0 DUP1 RETURNDATACOPY RETURNDATASIZE PUSH1 0x0 REVERT JUMPDEST POP POP POP JUMP JUMPDEST PUSH1 0x0 DUP2 CALLDATALOAD SWAP1 POP PUSH2 0x15B DUP2 PUSH2 0x27E JUMP JUMPDEST SWAP3 SWAP2 POP POP JUMP JUMPDEST PUSH1 0x0 PUSH1 0x20 DUP3 DUP5 SUB SLT ISZERO PUSH2 0x177 JUMPI PUSH2 0x176 PUSH2 0x279 JUMP JUMPDEST JUMPDEST PUSH1 0x0 PUSH2 0x185 DUP5 DUP3 DUP6 ADD PUSH2 0x14C JUMP JUMPDEST SWAP2 POP POP SWAP3 SWAP2 POP POP JUMP JUMPDEST PUSH2 0x197 DUP2 PUSH2 0x240 JUMP JUMPDEST DUP3 MSTORE POP POP JUMP JUMPDEST PUSH1 0x0 PUSH1 0x20 DUP3 ADD SWAP1 POP PUSH2 0x1B2 PUSH1 0x0 DUP4 ADD DUP5 PUSH2 0x18E JUMP JUMPDEST SWAP3 SWAP2 POP POP JUMP JUMPDEST PUSH1 0x0 PUSH2 0x1C3 DUP3 PUSH2 0x240 JUMP JUMPDEST SWAP2 POP PUSH2 0x1CE DUP4 PUSH2 0x240 JUMP JUMPDEST SWAP3 POP DUP3 PUSH32 0xFFFFFFFFFFFFFFFFFFFFFFFFFFFFFFFFFFFFFFFFFFFFFFFFFFFFFFFFFFFFFFFF SUB DUP3 GT ISZERO PUSH2 0x203 JUMPI PUSH2 0x202 PUSH2 0x24A JUMP JUMPDEST JUMPDEST DUP3 DUP3 ADD SWAP1 POP SWAP3 SWAP2 POP POP JUMP JUMPDEST PUSH1 0x0 PUSH2 0x219 DUP3 PUSH2 0x220 JUMP JUMPDEST SWAP1 POP SWAP2 SWAP1 POP JUMP JUMPDEST PUSH1 0x0 PUSH20 0xFFFFFFFFFFFFFFFFFFFFFFFFFFFFFFFFFFFFFFFF DUP3 AND SWAP1 POP SWAP2 SWAP1 POP JUMP JUMPDEST PUSH1 0x0 DUP2 SWAP1 POP SWAP2 SWAP1 POP JUMP JUMPDEST PUSH32 0x4E487B7100000000000000000000000000000000000000000000000000000000 PUSH1 0x0 MSTORE PUSH1 0x11 PUSH1 0x4 MSTORE PUSH1 0x24 PUSH1 0x0 REVERT JUMPDEST PUSH1 0x0 DUP1 REVERT JUMPDEST PUSH2 0x287 DUP2 PUSH2 0x20E JUMP JUMPDEST DUP2 EQ PUSH2 0x292 JUMPI PUSH1 0x0 DUP1 REVERT JUMPDEST POP JUMP INVALID LOG2 PUSH5 0x6970667358 0x22 SLT KECCAK256 0xED SHL COINBASE 0xE7 0xE4 0xAF ORIGIN INVALID 0xAA 0xA9 DUP1 0xB0 STOP CALLVALUE 0xF9 0xDB 0x2B PUSH23 0xD5B6EC0845AD3EC20056E7BB721664736F6C6343000807 STOP CALLER "
				},
				"gasEstimates": {
					"creation": {
						"codeDepositCost": "143000",
						"executionCost": "190",
						"totalCost": "143190"
					},
					"external": {
						"PayThisAddress(address)": "infinite",
						"balanceReceived()": "2429",
						"getBalance()": "317",
						"receiveMoney()": "infinite"
					}
				},
				"methodIdentifiers": {
					"PayThisAddress(address)": "8529812d",
					"balanceReceived()": "52a90c42",
					"getBalance()": "12065fe0",
					"receiveMoney()": "6d26ec18"
				}
			},
			"storageLayout": {
				"storage": [
					{
						"astId": 3,
						"contract": "SendMoneyExample.sol:SendMoneyExample",
						"label": "balanceReceived",
						"offset": 0,
						"slot": "0",
						"type": "t_uint256"
					}
				],
				"types": {
					"t_uint256": {
						"encoding": "inplace",
						"label": "uint256",
						"numberOfBytes": "32"
					}
				}
			},
			"userdoc": {
				"kind": "user",
				"methods": {},
				"version": 1
			}
		}
	}
}